{
  "contractName": "DonationContract",
  "abi": [
    {
      "inputs": [],
      "stateMutability": "nonpayable",
      "type": "constructor"
    },
    {
      "inputs": [
        {
          "internalType": "address",
          "name": "",
          "type": "address"
        }
      ],
      "name": "donations",
      "outputs": [
        {
          "internalType": "uint256",
          "name": "",
          "type": "uint256"
        }
      ],
      "stateMutability": "view",
      "type": "function"
    },
    {
      "inputs": [],
      "name": "owner",
      "outputs": [
        {
          "internalType": "address",
          "name": "",
          "type": "address"
        }
      ],
      "stateMutability": "view",
      "type": "function"
    },
    {
      "inputs": [],
      "name": "donate",
      "outputs": [],
      "stateMutability": "payable",
      "type": "function"
    },
    {
      "inputs": [],
      "name": "withdraw",
      "outputs": [],
      "stateMutability": "nonpayable",
      "type": "function"
    },
    {
      "inputs": [],
      "name": "getBalance",
      "outputs": [
        {
          "internalType": "uint256",
          "name": "",
          "type": "uint256"
        }
      ],
      "stateMutability": "view",
      "type": "function"
    }
  ],
  "bytecode": "0x6080604052348015600f57600080fd5b5060008054600160a060020a03191633179055610340806100316000396000f3fe608060405260043610610066577c0100000000000000000000000000000000000000000000000000000000600035046312065fe0811461006b5780633ccfd60b1461008e5780638da5cb5b146100a5578063cc6cb19a146100f7578063ed88c68e14610124575b600080fd5b34801561007757600080fd5b5030315b6040519081526020015b60405180910390f35b34801561009a57600080fd5b506100a361012c565b005b3480156100b157600080fd5b506000546100d29073ffffffffffffffffffffffffffffffffffffffff1681565b60405173ffffffffffffffffffffffffffffffffffffffff9091168152602001610085565b34801561010357600080fd5b5061007b61011236600461028d565b60016020526000908152604090205481565b6100a36101fd565b60005473ffffffffffffffffffffffffffffffffffffffff1633146101b2576040517f08c379a000000000000000000000000000000000000000000000000000000000815260206004820152601760248201527f4f6e6c79206f776e65722063616e20776974686472617700000000000000000060448201526064015b60405180910390fd5b6000805460405173ffffffffffffffffffffffffffffffffffffffff90911691303180156108fc02929091818181858888f193505050501580156101fa573d6000803e3d6000fd5b50565b60003411610267576040517f08c379a000000000000000000000000000000000000000000000000000000000815260206004820152601f60248201527f446f6e6174696f6e206d7573742062652067726561746572207468616e20300060448201526064016101a9565b33600090815260016020526040812080543492906102869084906102ca565b9091555050565b60006020828403121561029f57600080fd5b813573ffffffffffffffffffffffffffffffffffffffff811681146102c357600080fd5b9392505050565b80820180821115610304577f4e487b7100000000000000000000000000000000000000000000000000000000600052601160045260246000fd5b9291505056fea2646970667358221220e8737407f20a46e712d8baa08e7bc78440eed753ab2942bb143c860952eabd8864736f6c634300081c0033",
  "immutableReferences": {},
  "source": "// SPDX-License-Identifier: MIT\r\npragma solidity ^0.8.28;\r\n\r\ncontract DonationContract {\r\n    address public owner;\r\n    mapping(address => uint) public donations;\r\n\r\n    constructor() {\r\n        owner = msg.sender;\r\n    }\r\n\r\n    function donate() public payable {\r\n        require(msg.value > 0, \"Donation must be greater than 0\");\r\n        donations[msg.sender] += msg.value;\r\n    }\r\n\r\n    function withdraw() public {\r\n        require(msg.sender == owner, \"Only owner can withdraw\");\r\n        payable(owner).transfer(address(this).balance);\r\n    }\r\n\r\n    function getBalance() public view returns (uint) {\r\n        return address(this).balance;\r\n    }\r\n}\r\n",
  "sourcePath": "C:\\Users\\dell\\form - Copy\\contracts\\DonationContract.sol",
  "compiler": {
    "name": "solc",
    "version": "0.8.28+commit.7893614a.Emscripten.clang"
  },
  "schemaVersion": "3.4.16",
  "updatedAt": "2024-10-21T18:19:39.358Z",
  "devdoc": {
    "kind": "dev",
    "methods": {},
    "version": 1
  },
  "userdoc": {
    "kind": "user",
    "methods": {},
    "version": 1
  }
}